:020000040800F2
:10000000E07601206D020008972D000845160008D3
:10001000952D000879050008052E00080000000055
:100020000000000000000000000000009B2D000800
:100030000B08000800000000992D00089D2D000805
:10004000A1020008A1020008A1020008A102000804
:10005000A1020008A1020008A1020008A1020008F4
:10006000A1020008A1020008A1020008A1020008E4
:10007000A1020008A1020008A1020008A1020008D4
:10008000A1020008A1020008A1020008A1020008C4
:10009000F92D0008A1020008A1020008A102000831
:1000A000A1020008A1020008A1020008A1020008A4
:1000B000A1020008A1020008A102000855160008CC
:1000C00049160008A1020008A1020008A1020008C8
:1000D000A1020008A1020008A1020008A102000874
:1000E000A1020008A1020008A1020008A102000864
:1000F000A1020008A1020008A1020008A102000854
:10010000A1020008A1020008A1020008A102000843
:10011000A1020008A1020008A1020008A102000833
:10012000A1020008A1020008A1020008A102000823
:10013000A1020008A1020008A1020008A102000813
:1001400000000000000000000000000000000000AF
:10015000A1020008A1020008A1020008A1020008F3
:10016000A1020008A1020008A1020008A1020008E3
:10017000A1020008A1020008A1020008A1020008D3
:10018000A102000800F002F800F060F80AA090E870
:10019000000C82448344AAF10107DA4501D100F042
:1001A00055F8AFF2090EBAE80F0013F0010F18BFAF
:1001B000FB1A43F001031847B8750000D87500001A
:1001C00010F8013B0A4413F0030408BF10F8014B78
:1001D0001D1108BF10F8015B641E05D010F8016BFB
:1001E000641E01F8016BF9D1002D15D010F8014BF8
:1001F00003F00C030C2BA1EB04040ABF10F8013B25
:10020000A4EB8314A4EB032405F1010314F8016BA0
:100210005B1E01F8016BF9D5914238BF10F8013B24
:10022000D1D370470023002400250026103A28BFB0
:1002300078C1FBD8520728BF30C148BF0B60704758
:100240001FB507F0ACF91FBD10B510BD00F052F995
:100250001146FFF7F5FF04F015FF00F084F903B431
:10026000FFF7F2FF03BC03F07BFD000041F200004A
:10027000C2F2000085460E48804740F20000C0F6FA
:100280000000D0F800D00B4880470B480047FEE73D
:10029000FEE7FEE7FEE7FEE7FEE7FEE7FEE7FEE736
:1002A000FEE7000005480649064A074B7047000074
:1002B0000D080008A12D000885010008E05001206C
:1002C000E0760120E0560120E05601207047000052
:1002D0000FB4044910B503AA029800F0A3F810BCAB
:1002E0005DF814FB40030020032A40F2308010F038
:1002F000030C00F0158011F8013BBCF1020F6244C1
:1003000098BF11F801CB00F8013B38BF11F8013B51
:10031000A2F1040298BF00F801CB38BF00F8013BFE
:1003200011F0030300F09080083AC0F0088051F803
:10033000043B083A51F804CBA0E80810F5E7121D79
:100340005CBF51F8043B40F8043BAFF30080D20798
:1003500024BF11F8013B11F801CB48BF11F8012B64
:1003600024BF00F8013B00F801CB48BF00F8012B87
:1003700070474FF000020429C0F0128010F0030C07
:1003800000F01B80CCF1040CBCF1020F18BF00F888
:10039000012BA8BF20F8022BA1EB0C0100F00DB837
:1003A0005FEAC17C24BF00F8012B00F8012B48BF95
:1003B00000F8012B70474FF0000200B51346944639
:1003C0009646203922BFA0E80C50A0E80C50B1F1AD
:1003D0002001BFF4F7AF090728BFA0E80C5048BFC1
:1003E0000CC05DF804EB890028BF40F8042B08BF5F
:1003F000704748BF20F8022B11F0804F18BF00F85B
:10040000012B7047704770477047704710B500F078
:100410004DF8006810BD10B5044600F047F80460C0
:1004200010BD0000074B70B50D467B4400F047F847
:100430000446284600F056F810B14FF0FF3070BD6A
:10044000204670BD6F41000010B5203AC0F00B800F
:10045000B1E81850203AA0E81850B1E81850A0E8C8
:100460001850BFF4F5AF5FEA027C24BFB1E8185022
:10047000A0E8185044BF18C918C0BDE810405FEA92
:10048000827C24BF51F8043B40F8043B08BF70470E
:10049000D20728BF31F8023B48BF11F8012B28BF13
:1004A00020F8023B48BF00F8012B70470048704716
:1004B0008050012001694A1C02610878704700B52C
:1004C0008FB0CDE901310021059105497944CDE98D
:1004D00003101146684600F032F80FB000BD00006E
:1004E000E5FFFFFF007B00F0800070470048704789
:1004F000805001207546FFF7F9FFAE4605006946BA
:10050000534620F00700854618B020B5FFF7CAFE15
:10051000BDE820404FF000064FF000074FF0000804
:100520004FF0000B21F00701AC46ACE8C009ACE885
:10053000C009ACE8C009ACE8C0098D4670472DE998
:10054000F04106460024D6E90170F5688046304641
:1005500003E04146B847641C3046A8470028F8D15C
:100560002046BDE8F08110B50446AFF30080204678
:10057000BDE81040FFF773BEFEE77047411A01F176
:1005800021026FF00500032A06D34A1C032A03D375
:100590001F39032900D30020704700002DE9F047E0
:1005A0005FF0080430F90E2B30F90C19551830F9AA
:1005B000023B511AB0F9082030F904CB9E189A1A60
:1005C000B0F9023030F9028C0CEB030AACEB0303F8
:1005D00030F908CB06EB0A0908EB0C07A8EB0C0C6A
:1005E00005EB0708ED1B08EB090720F8107CA8EBCA
:1005F000090720F8087CA6EB0A0640F23A5740F2B9
:1006000015186F4306FB08F807EB4807BF1220F8E0
:100610000C7C40F22A277D436FF427777E4305EB5D
:100620004605AD1220F8045C40F21B154D436FF4F3
:10063000497606FB025640F22D155D4306EB850612
:100640006FF4B1750CFB05F506EB8505AD1220F8CE
:10065000025C40F225356FF4B1764D43564305EB0D
:10066000860640F21B1503FB056640F22D150CFBB8
:1006700005F506EB8505AD1220F8065C6FF48D7567
:1006800040F22D1655434E4305EB86066FF4B175C7
:100690005D4306EB85066FF4497505FB0C65AD12ED
:1006A00020F80A5C40F28C55694340F22D156A43EC
:1006B00001EB820140F2253203FB021140F21B12D2
:1006C0000CFB02118912641E20F80E1C14EA174458
:1006D0007FF468AF0825803830F9702B30F9601945
:1006E0005618511AB0F90030B0F95020B0F9404016
:1006F00003EB020A9A1AB0F91030B0F9208003EB2C
:10070000040C1B1BB0F9304008EB040706EB07098B
:10071000F61B0AEB0C07A8EB040409EB07084FEAE9
:10072000E80820F8108CA9EB0707FF100786AAEB52
:100730000C0C40F23A5740F2151877430CFB08F8BE
:1007400007EB48077F13078240F22A277E436FF4A6
:1007500027770CFB07FC06EB4C067613A0F85060DD
:1007600040F21B164E436FF4497707FB026740F2D5
:100770002D165E4307EB86076FF4B176664307EBF1
:1007800086067613A0F8606040F225366FF4B177E4
:100790004E43574306EB870740F21B1603FB0677D1
:1007A00040F22D16664307EB86067613A0F84060EC
:1007B0006FF48D7640F22D1756434F4306EB8707B3
:1007C0006FF4B1765E4307EB86076FF4497606FB5C
:1007D00004767613068440F28C56714340F22D164F
:1007E000724301EB820140F2253203FB021140F219
:1007F0001B1204FB021149136D1E2D0420F80E1963
:100800002D0C7FF469AFBDE8F087704710B50B4C35
:100810000B4920684860C04310F0FF0F0DD003F073
:100820004FFE03F05BFEFF21204603F091FE03F034
:1008300015FEBDE8104004F0FBBD10BD10F8FF1F11
:100840004C0300202DE9F04F07462DED088BADF647
:10085000145D8846B0F84000C0F30311CDF8001DC8
:10086000C0F30321CDF80C1D1E2100F00F0C01EB8D
:100870001034B7F84200CDF8080D00220DF549609C
:1008800007EB42019300B1F84410521C01F00F0530
:1008900040F8235000EB8303C1F303155D60C1F3FF
:1008A0000325090BC3E90251062AE9DB5FF00001C9
:1008B00050F82120072A02DD103A40F82120491C77
:1008C0001829F5DB00220DF5416107EB4203950085
:1008D000B3F85030521C03F00F0641F8256001EBCD
:1008E0008505C3F303166E60C3F303261B0BC5E92E
:1008F0000263082AE9DB002251F82230072B02DDCF
:10090000103B41F82230521C202AF5DB012000FA6E
:100910000CFB0026B6EE00AA9FED759B0DF1100AA8
:10092000204606F085FA9FED748B08F58059CDF8C6
:10093000F41C01905FF0000505EB461007EB400149
:100940000AEB8004B1F88010C1F3051100EE101A13
:100950006B49B8EE401A11EE100A84ED001A884275
:1009600005DD9FED680A31EE400A84ED000A00EED5
:1009700010BAD4ED000A0DF54960B8EEC00A20EEB9
:10098000800A84ED000A50F82600DDF80C1D88402E
:10099000DDF8081D42180DF54160DDF8001D50F826
:1009A00025008840104400EE900AF8EEE00A30EE90
:1009B000800AF0EE680A84ED000ADDF8F41C019864
:1009C000B0EE480A41EC110B02F092FAB0EE40BAD8
:1009D000F0EE60BA206806F071FD53EC1B2B06F0B8
:1009E0005BF805F06BFF01EE100A84ED001A99ED3B
:1009F000940AD9ED950A30EE200AD8ED060A20EEC9
:100A0000200A00EE4A1A84ED001A11EE100A06F0D0
:100A100055FD41EC100B53EC102BB0EE490AF0EEF3
:100A2000690A51EC100B06F037F805F047FF6D1C12
:100A30002060202D80DB761C182EFFF67BAF9DED0D
:100A4000041A012057464FF4407600BF07EB80019F
:100A500091ED000AB4EEC10AF1EE10FA01DDB0EE3C
:100A6000401A401CB042F1DB0024B0EE000A2649D7
:100A700004E000BF21EE001A641CE4B211EE100A7B
:100A80008842F7DB0025204606F0D2F99FED1F9B38
:100A90008A4681464AEC119BB0EE480AF0EE680A9D
:100AA00002F026FAB0EE40AAF0EE60AA57F8250050
:100AB00006F004FD53EC1A2B06F00AFA05F0FEFED0
:100AC00006F0FCFC53EC192B05F02AFF06F06CF93C
:100AD00008EB45016D1CA1F84A00B542DADB88F845
:100AE0004A460DF6145DBDEC088BBDE8F08F0000A2
:100AF0008DEDB5A0F7C6B03E00000000000000403C
:100B00000000F84100008042CDFEFF4600000000DA
:100B10000000E03F10B5828A802303EA121282F0BF
:100B20008003B0F86A20204C02F03F0000EE100A6B
:100B3000B8EE400A10EE100AA04203DDDFED1B0AFA
:100B400030EE600ADFED1A0AC2F38410194C60EE31
:100B5000200A00EE100A9FED181AB8EE400A10EEB7
:100B6000100AA04201DD30EE410AF6EE001AD00A6A
:100B700060EE211A00EE100AB8EE400A10EE100ADC
:100B8000A04201DD30EE410AB4EE001A81F82530B2
:100B900001F5805120EE010AC1ED970AC1ED981AC6
:100BA00081ED990A10BD00000000F841000080426C
:100BB0000000803D00007041000000422DE9F0413E
:100BC00005462DED088B0E461B21B0F84000B5F808
:100BD000742001EB1031C2F3090060F30F04B0F58B
:100BE000007F03DBA0F5806060F30F04900A60F3E0
:100BF0001F441F2802DD403860F31F4404EB2440EB
:100C000060F31F44B5F87200574AC0F3090000EEC4
:100C1000100AB8EE408A18EE100A904203DD9FEDEC
:100C2000530A38EE408A084606F002F941EC110BEF
:100C30009FED4F9BB0EE490AF0EE690A02F058F9B9
:100C4000B0EE401AF0EE601AB0EE41AAF0EE61AAE2
:100C500018EE100A06F032FC53EC1A2B05F01CFFBC
:100C600005F02CFE01EE900AB5F8720011EE907AB4
:100C7000800A00EE100A4049B8EE401A11EE100A40
:100C8000884203DD9FED3D0A31EE401ADFED3C0A5C
:100C9000B7EE000A95F8760001EE200ADFF8E4804E
:100CA0009FED39BA60EE218A00EE100AB8EE408A54
:100CB00018EE100A404501DD38EE4B8A95F87000B9
:100CC000C0F30310083006F0B3F841EC110BB0EE9E
:100CD000490AF0EE690A02F00BF9B0EE40AAF0EE14
:100CE00060AA18EE100A06F0E9FB53EC1A2B05F087
:100CF000D3FE05F0E3FD3062B5F87600000A00EEA1
:100D0000100AB8EE408A18EE100A404501DD38EEB0
:100D10004B8AB5F87000C0F3032006F089F841EC67
:100D2000110BB0EE490AF0EE690A02F0E1F8B0EEFC
:100D3000409AF0EE609A18EE100A06F0BFFB53ECF2
:100D4000192B05F0A9FE05F0B9FDF061A6F55B666B
:100D500006F5005620143760C6ED018A3481708193
:100D6000BDEC088BBDE8F0810080FF4300008044AB
:100D700000000000000000400000F8410000804238
:100D80000000003C0000FE42000080432DE9F041DD
:100D90000E46002107460C460D4608464FF6FF73E7
:100DA00006EB410202F58052491CA2F8683289B272
:100DB000A2F872320529F3D300214FF4407300BF2B
:100DC00007EB4102B2F88020BAB1D20707D006EB98
:100DD000450202F580526D1CA2F87212ADB2491C98
:100DE00089B2994203D2052C01D2052DE8D3042CF7
:100DF0000CD96FF00200BDE8F08106EB440202F569
:100E00008052641CA2F86812A4B2E8E7042D02D94B
:100E10006FF00300EFE76119042902D96FF00400B5
:100E2000E9E7002317E006EB43015F1C01F580585A
:100E30000DE000BF06EB470000F58050B0F86812E7
:100E4000B8F86802FFF79AFB0028D4D17F1CA742AC
:100E5000F0DB5B1C9BB2A342E5D3002317E006EB5B
:100E600043015F1C01F580580DE000BF06EB470011
:100E700000F58050B0F87212B8F87202FFF77EFBEE
:100E80000028B8D17F1CAF42F0DB5B1C9BB2AB42A9
:100E9000E5D3002317E006EB4301002701F5805856
:100EA0000DE000BF06EB470000F58050B0F872126D
:100EB000B8F86802FFF762FB00289CD17F1CAF42A4
:100EC000F0DB5B1C9BB2A342E5D394E7B0F9600072
:100ED000B0F5004F00DB00B288827047B0F87800B0
:100EE0000A4A000A00EE100AB8EE400A10EE100A94
:100EF000904203DDDFED060A30EE600ADFED050A01
:100F000020EE200A81ED0A0A704700000000FE4230
:100F1000000080430000003930B530F87E2F6FF0BC
:100F20002703C2F3013202EB82025200A1F84030E3
:100F30000023A1F8423010F80439C3F30313A1F8D9
:100F400044308488C4F3032413FB02F3A1F8443033
:100F500014FB0232A1F846204FF4C872A1F84820D1
:100F60000279224D02F00F03012208339A400378E0
:100F7000DFED1F0A00EE103AB8EE400A81ED0B0AD1
:100F800003881B0A00EE103AB8EE400A81ED0C0A05
:100F9000837800EE103AB8EE400A81ED0D0A4088E1
:100FA000000A00EE100A0020B8EE400A81ED0E0A99
:100FB00001EB800393ED0B0A10EE104AAC4203DD07
:100FC00030EE600A83ED0B0AB0EE401A00EE102AF4
:100FD000401C0428B8EEC00AC1EE001AC3ED0B1A7B
:100FE000E6DB9FED040A81ED0F0A30BD0000FE42F2
:100FF0000000804317B751B92DE9F34F07462DED97
:10100000068BADF60C4DB0F86C1041F307207F282D
:1010100000DD40B28DF8080C48B27F2800DD40B2F8
:101020008DF80A0CB7F86E1041F307207F2800DD19
:1010300040B28DF8090C48B27F2800DD40B28DF82F
:101040000B0C97F870000026C0F3031100F00F029C
:10105000012000FA02F9DFF8C8A10DF6084BE846B6
:1010600001F1080005F0E4FE9FED6E8B0DF5406286
:1010700003C2002505EB4610C11700EBD16200EB5F
:10108000916189115211494202EB410100EBD0728A
:1010900022F00102821A02EB410107EB400208EB49
:1010A000800492F88020C9B2C2F3420200EE102AF6
:1010B000B8EE401A11EE100A84ED001A504505DD15
:1010C000B2EE000A31EE400A84ED000A00EE109AFA
:1010D000D4ED000AB8EEC00A20EE800A84ED000AC2
:1010E0001BF9010000EE900A0DF54060F8EEE00AF1
:1010F00030EE800AF0EE680A84ED000A03C8B0EE14
:10110000480A41EC110B01F0F3FEB0EE401AF0EE8C
:10111000601AB0EE419AF0EE619A206806F0CEF9BE
:1011200053EC192B05F0B8FC05F0C8FB6D1C2060D2
:10113000202D9FDB761C182E9BDB9DED000A0120E5
:101140004746B0EEC01A4FF4407600BF07EB80016F
:1011500091ED000AB0EEC00AB4EEC10AF1EE10FA49
:1011600001DDB0EE401A401CB042EFDB0025B0EECE
:10117000000A2E4904E000BF21EE001A6D1CEDB2FA
:1011800011EE100A8842F7DB0024284605F050FED5
:10119000B0EE489AF0EE689A9FED258B894680461E
:1011A00049EC118BB0EE490AF0EE690A01F0A0FE9D
:1011B000B0EE40AAF0EE60AA57F8240006F07EF9DF
:1011C00053EC1A2B05F084FE05F078FB00EE100AB4
:1011D00010EE100AB5EEC00AF1EE10FA06D206F0D3
:1011E0006DF953EC182B06F07FF805E006F066F970
:1011F00053EC182B05F094FB05F0A6FDDDF8281C38
:101200002144641C81F84C0CB442C9DBDDF8280C85
:1012100080F84C5F0DF60C4DBDEC068BBDE8FC8FE5
:101220000000404000000000000000409A997D420C
:10123000000000000000E03F2DE9F04F89462DED51
:10124000068BADF6044DB0F86820110B072900DDC0
:1012500010398DF8001CC2F30321072900DD103975
:101260008DF8021CC2F30311072900DD10398DF837
:10127000011C02F00F01072900DD10398DF8031C55
:10128000B0F870000025C0F303200DF540686F46EC
:1012900005F0CEFD8B4682469FED598B5FF0000432
:1012A00004EB4510C11700EBD16200EB916189118D
:1012B0005211494202EB410100EBD07222F00102CF
:1012C000821A02EB4101C9B218F9011007EB80063E
:1012D00000EE101A4BEC11ABF0EE680AB8EEC00A43
:1012E00086ED000AB0EE480A01F002FEB0EE401AA8
:1012F000F0EE601AB0EE419AF0EE619A306806F0B6
:10130000DDF853EC192B05F0C7FB05F0D7FA641C88
:101310003060202CC4DB6D1C182DBFDB9DED000A56
:1013200001204FF44076B0EEC01A00BF07EB8001F9
:1013300091ED000AB0EEC00AB4EEC10AF1EE10FA67
:1013400001DDB0EE401A401CB042EFDB0025B0EEEC
:10135000000A2D4904E000BF21EE001A6D1CEDB219
:1013600011EE100A8842F7DB0024284605F060FDE4
:10137000B0EE489AF0EE689A9FED248B8A4680463C
:101380004AEC118BB0EE490AF0EE690A01F0B0FDAB
:10139000B0EE40AAF0EE60AA57F8240006F08EF8EE
:1013A00053EC1A2B05F094FD05F088FA00EE100AB4
:1013B00010EE100AB5EEC00AF1EE10FA06D206F0F1
:1013C0007DF853EC182B05F08FFF05E006F076F85A
:1013D00053EC182B05F0A4FA05F0B6FC09EB040158
:1013E000641C81F84D0FB442CADB41F24D2000F875
:1013F00009500DF6044DBDEC068BBDE8F08F0000E2
:1014000000000000000000409A997D4200000000AA
:101410000000E03F2DE9F04F8B46018CB0F92240EF
:10142000B8B001F00F09C1F3031CC1F3032AB4F5EE
:10143000004F00DB24B2002120AA00EB41038D0005
:101440009B8C491C03F00F0642F8256002EB8505D2
:10145000C3F303166E60C3F303261B0BC5E90263D7
:101460000629EADB5FF0000152F82130072B02DD8C
:10147000103B42F82130491C1829F5DB002369464E
:1014800000EB43059E002D8E5B1C05F00F0741F815
:10149000267001EB8606C5F303177760C5F30327B3
:1014A0002D0BC6E90275082BEADB002351F8235007
:1014B000072D02DD103D41F823505B1C202BF5DB8E
:1014C0000023964600225EF8235005FA0AF500BF75
:1014D00002EB431600EB46070BEB4606B7F88070AD
:1014E000BF0AA6F84C761F2F02DD403FA6F84C76C7
:1014F00031F82280BFB207FA09F708FA0CF8A844BD
:1015000027444744521CA6F84C76202AE0DB5B1C9B
:10151000182BD7DB38B0BDE8F08F000070B50C4653
:101520002DED048B0546B0F86410254A880A00EEBC
:10153000100AB8EE400A10EE100A904203DDDFED0B
:10154000210A30EE600ADFED200AC1F309001F49CD
:1015500020EE208A00EE100AB8EE400A10EE100AC3
:10156000884203DDDFED1A0A30EE600AF4EE000A6D
:10157000B5F862609FED171B60EE208A9FED170B98
:1015800001F0B6FC288CB0EE409AF0EE609A00F4C0
:10159000704005F04DFC53EC192B05F07DFA9FEDE2
:1015A000111B53EC112B05F0BBF905F087F984ED05
:1015B000018AC4ED028AA6812061BDEC048B70BD56
:1015C0000000F84100008042000080390080FF43A5
:1015D000000080440000000000002C4000000000DB
:1015E00000000040000000000000204090F878005B
:1015F000094A00EE100AB8EE400A10EE100A9042B6
:1016000003DDDFED060A30EE600ADFED050A20EEAD
:10161000200A81ED060A70470000FE420000804368
:101620000000003DB0F86620100A7F2801DDA0F51B
:1016300080704001D2B24FF4404303EB4212088065
:101640004A807047FEE70000014803F0CFB8000071
:1016500048500120014803F021B900004850012002
:101660002DE9F04F614C89B04FF0000AE068427AF2
:10167000818A022A1ED0C9000891FAB10221884647
:10168000002121612180C18201834183A069A0F5ED
:101690008070079066696568AF1B874206DDA268A7
:1016A00039463046904706460546BA464FF0000B8D
:1016B000A14669E0090108910121E0E70021DEE788
:1016C00000275AE04A4C424623465946384600F025
:1016D000E3FA2046FEF762FFA4F58071204600F091
:1016E00079FA2A460121204600F094F80546803414
:1016F0002046FEF753FFA4F5C071204600F06AFAB9
:101700002A460121204600F085F80546B8F1010F70
:101710004DD0B8F1000F1FD004F180000090FEF70B
:101720003DFF33490098803900F054FA2A460221DF
:10173000009800F06FF8054604F580742046FEF727
:101740002DFF2B492046803900F044FA2A46032118
:10175000204600F05FF805460798AC1B844207DD81
:10176000D9F8082021463046904706460546A2444F
:10177000D9F80C00808A07EB0017D9F80C004089D3
:10178000B8429FD808998B44D9F80C108A895A45D9
:1017900096D8284602F064FC841BD9F8082021461C
:1017A0003046904709B00AEB0400BDE8F08F04F121
:1017B00080000090FEF7F2FE0E49009800F00AFA51
:1017C0002A460121009800F025F8054604F58074AA
:1017D0002046FEF7E3FE0749204600F0FBF92A46C3
:1017E0000121204600F016F8054695E70005002087
:1017F000084D0120084C012010B5054C010060691E
:1018000002D00844606010BD00F0D6FBFAE700008B
:10181000000500202DE9F74F81B0D64D0198012930
:10182000B0F90040E86812D005F53C7705F542763E
:1018300005F2FA4905F23E63022913D0B0F91A10F5
:101840004483601A00B2002810DA41420FE0CA4F08
:10185000B0F9161007F1180606F1300906F5BA734B
:10186000C482EEE7B0F918100483EAE7014689B2B2
:10187000002402E04908641CA4B20029FAD137F818
:101880001410365D002805DA0127A740401E7F1E90
:10189000074038B2A14001433019B5F800C087B203
:1018A000AE460CEB0705A5F1200004B2B14806696D
:1018B0000020002C06DABE400E43CEF81060AEF8D1
:1018C00000502BE0CCF12007BE4021FA04F73E4344
:1018D000CEF81060360E754602F8016BFF2E01D16E
:1018E00002F8010B2E69C6F3074602F8016BFF2EC2
:1018F00001D102F8010B2E8AC6F3072602F8016B0C
:10190000FF2E01D102F8010B2E7C02F8016BFF2E95
:1019100001D102F8010B2961AEF80040954C002678
:10192000DC343F2114F8015F019F37F91550EDBBFE
:10193000D4E093F8A170BEF80080B9F842B108EB8A
:10194000070CCDF800C0103EACF1200C0FFA8CFC57
:10195000B6B25FEA0C0A0BD5DEF810C00CFA07FC31
:101960004CEA0B0CCEF810C0009FAEF8007039E0C6
:10197000DEF81070C8F1200C07FA0CF72BFA0AFCFD
:1019800047EA0C07CEF810703F0EF44602F8017BD0
:10199000FF2F01D102F8010B6746DCF810C0CCF331
:1019A000074C02F801CBBCF1FF0F00E01AE001D1B7
:1019B00002F8010BB7F810C0CCF3072C02F801CBEA
:1019C000BCF1FF0F01D102F8010B97F810C002F82B
:1019D00001CBBCF1FF0F01D102F8010BC7F810B029
:1019E000A7F800A00F2EA4D8002D01DA6F4200E066
:1019F0002F461FFA87FC002704E000BF7F1C4FEA38
:101A00005C0CBFB2BCF1000FF8D106EB860607EB09
:101A100046061FFA86FC002D39F81C6013F80CC02E
:101A20000ADA4FF0010808FA07F86D1EA8F101085C
:101A300008EA05080FFA88F5BE402E430CEB0705AF
:101A4000BEF800701FFA85F8BA4607EB080CACF137
:101A500020073FB27546002F07DA2F6907FA08F70B
:101A600037432F61AEF800C036E0D5F810C0CAF198
:101A700020080CFA08FC26FA07F84CEA080CC5F80E
:101A800010C04FEA1C6C02F801CBBCF1FF0F01D172
:101A900002F8010BD5F810C0CCF3074C02F801CBCB
:101AA000BCF1FF0F01D102F8010BB5F810C0CCF367
:101AB000072C02F801CBBCF1FF0F01D102F8010B9A
:101AC00095F810C002F801CBBCF1FF0F01D102F86C
:101AD000010B2E61AEF80070002601E0761CB6B254
:101AE000491E0904090C7FF41DAFE6B31E78BEF849
:101AF0000070B9F80040BD19A5F120031BB2714672
:101B0000002B06DA0869B04020430861AEF80050A7
:101B10002CE00D69C7F12006B54024FA03F63543E1
:101B20000D612D0E02F8015BFF2D01D102F8010BB2
:101B30000D69C5F3074502F8015BFF2D01D102F8DD
:101B4000010B0D8AC5F3072502F8015BFF2D01D1BA
:101B500002F8010B0D7C02F8015BFF2D01D102F8A8
:101B6000010B0C6100E001E0AEF8003004B010465B
:101B7000BDE8F08F00050020CC070020F0B505ACD3
:101B8000DFF83CE094E8E0100C4CCEF80C406081AB
:101B9000A181E6812782A4F812C0A2820822C01D7A
:101BA00022806280C008A080C91DC808E08025721C
:101BB00063722846BDE8F04000F0B2B9684B0120DE
:101BC00000050020024BC3E90512C3E9011070476C
:101BD000000500202DE9F0475FF0080230F9028B84
:101BE00031F8023B521E08FB03F808F5804A30F931
:101BF000028B31F8023B30F904CB08FB03F831F8D3
:101C0000043B30F9027C0CFB03FC31F8023C30F958
:101C1000086B5F4331F8083B30F9065C5E4331F8EE
:101C2000063C30F9044C5D4331F8043C08F580492A
:101C30005C4330F9023C31F8028C0CF5804C03FB1C
:101C400008F34FEAEA3820F8108C4FEAE93807F534
:101C5000804720F80E8C4FEAEC3CFF1306F58046D7
:101C600020F80CCCF61305F5804520F80A7CED131E
:101C700004F5804420F8086CE41303F5804320F851
:101C8000065CDB1320F8044C12B220F8023C002A58
:101C9000A4DCBDE8F08700002DE9FF4F8AB01C46A8
:101CA0000C988033012810D003F180090820824667
:101CB00009F18000089096484FF0FF31C068808A93
:101CC00001EB4000099000201BE103F5C0791020D2
:101CD000EDE78F4D00221146EE680B9D054405EBA4
:101CE00085074FEA871E05EB850B0A9DD6F81CC0B9
:101CF00015440EEB45073CF807C02DF811C0D6F887
:101D00001C80491C08EB8B1C4FF0020808EB4505B2
:101D10003CF805502DF81150099D491C2A44521CCD
:101D20006F461029E1DB0C9919B101295ED1C10779
:101D30005CD0BDF80020B91CD2B2803A24F8022B46
:101D4000BDF80220D2B2803A24F8022BBDF804205C
:101D5000D2B2803A24F8042BBDF80620D2B2803AE1
:101D600024F8022CBDF80820D2B2803A24F8082BBF
:101D7000BDF80A20D2B2803A24F8062CBDF80C2017
:101D8000D2B2803A24F8042CBDF80E20D2B2803AA8
:101D900024F8022CBDF81020D2B2803A23F8022B8E
:101DA000BDF81220D2B2803A23F8022B8A7C803A06
:101DB00023F8042B0A7D803A23F8022C8A7D803A8E
:101DC00023F8082B0A7E803A23F8062C8A7E803A74
:101DD00023F8042C097F803923F8021C0C9901296F
:101DE00003D1072801D18033803489E09DF8002099
:101DF00009F10205803A24F8022B9DF80120791C94
:101E0000803AA9F800209DF80220803A24F8022B9D
:101E10009DF80320089E803A32809DF80460089A5D
:101E2000803E24F8046B9DF80560803E25F8026B27
:101E30009DF80660803E24F8026C9DF80760803EA5
:101E400056809DF80860803E24F8086B9DF8096074
:101E5000803E25F8026B4E7A803E24F8066C8E7A1E
:101E6000803E9680CE7A803E24F8046C0E7B803EC5
:101E700025F8026B4E7B803E24F8026C8E7B803E00
:101E8000D680CE7B803E23F8026B0E7C803E25F808
:101E9000066B4E7C803E23F8026B8E7C803E168162
:101EA000CE7C803E23F8046B0E7D803E25F8046CCA
:101EB0004E7D803E23F8026C8E7D803E5681CE7D25
:101EC000803E23F8086B0E7E803E25F8026C4E7E25
:101ED000803E23F8066C8E7E803E9681CE7E803ECC
:101EE00023F8046C0E7F803E25F8026BA9464D7FD7
:101EF000803D23F8025C897F8039D18110320892BD
:101F0000401C5045FFF4E5AE0EB0BDE8F08F000078
:101F10000005002001494861486070470005002025
:101F20002DE9F04708B3082800D90820214F00EB1D
:101F300040001F4EC20107F140050020A6F18008B5
:101F400007F1800CA6F140094FF4004405F1C00AE6
:101F5000A2F5807218F80010335C514301F500714E
:101F6000890A022903D2022104E00120DEE7FF29C9
:101F700000D9FF21F954B4FBF1F12CF8101019F835
:101F80000010514301F50071890A022901D2022192
:101F900002E0FF2900D9FF21E954B4FBF1F32AF84C
:101FA0001030401C80B24028D4D3BDE8F087000038
:101FB0009C050020884B01202DE9F047FF24047088
:101FC000D82141708470E021C1700021017110227C
:101FD00042714A2282714622C271492303724272BF
:101FE00081720123C372037341738173C3730174DC
:101FF00043748174C1740475DB254575817543266E
:10200000C67501760022664F10F1190017F802C05C
:10201000521C92B200F801CB402AF7D3614AD7682C
:102020007F7A9FB100F8014B00F8015B002500F8B2
:10203000021B00F8016C5A4E00F8013B4036775DF8
:102040006D1CADB200F8017B402DF8D300F8014BB8
:10205000C02500F8015BD5686D7A002D75D0032688
:1020600006EB460508352F0A00F8017B4FF00309FF
:1020700000F8015B082500F8025BD5684FF0020C00
:10208000AF89AD8AB7FBF5F52D0A00F8015CD5687C
:10209000AF89AD8AB7FBF5F500F8045BD5686F89A9
:1020A000AD8AB7FBF5F52D0A00F8035CD5686F899A
:1020B000AD8AB7FBF5F500F8025C00F8016CD56855
:1020C0006F7A112500F8013BF7B3D7687F7A012FAB
:1020D0005FD0022F5FD000F8015B00BF00F8011B4A
:1020E00000F801CB00F8015B00F8033B00F8029C0C
:1020F00000F8015C00F8013BDFF8ACA0002700BF4E
:102100001AF807807F1CBFB200F8018BD82FF7D3D5
:10211000D7687F7A67B1DFF890A000270AF1D80A64
:102120001AF807807F1CBFB200F8018BD82FF7D3B5
:1021300000F8014BDA2400F8014B062404EB4604B6
:10214000270A00F8027B01E01EE01BE000F8014CCA
:1021500000F8016BD268527A00F8013B00F8011BCD
:102160003AB100F801CB00F8035B00F8029C00F8DC
:10217000015C00F8011B3F2200F8012B00F8011B55
:10218000BDE8F08701266BE700F8015B00F8011B52
:10219000B2E7212700E0222700F8017B9EE700003C
:1021A000884B0120000500201C0600202DE9F74F78
:1021B00007462DED020B0D462DED108B9CB0B0EEB9
:1021C000608AB0F882060E90384600F0ADFC10EE42
:1021D00010AA2946384600F019FCF0EE408A18EEA5
:1021E000900A05F06BF99FEDFEFB53EC1F2B04F0FA
:1021F00097FB04F063FB00EE100A18EE100A20EEC5
:10220000000A20EE009A05F059F953EC1F2B04F058
:1022100087FB04F053FB00EE100ADDED2C0A95F865
:102220004C0F20EE000A20EE000A70EE491A81EEF3
:10223000A01A30EE41AA04F0FBFD41EC110B9FED1A
:10224000EA9BB0EE490AF0EE690A00F051FE51EC4B
:10225000100B04F033FB00EE100A05F580598DEDEC
:10226000110A99F84D0204F0E3FD41EC110BB0EEB8
:10227000490AF0EE690A00F03BFE51EC100B04F045
:102280001DFB00EE100A8DED100A95F84A0604F0C9
:10229000CFFD41EC110BB0EE490AF0EE690A00F0F7
:1022A00027FE51EC100B04F009FB0F90D5ED0B0A43
:1022B0009FEDCF1AB7EE008ACE4BB0EE480A00EE83
:1022C000810AC8EE000ACDED0A0A8DED0B8AB5F938
:1022D0004400D5ED0C0A00EE100AB8EEC01AB0EEBC
:1022E000480A00EE810A8DED0C0AB5F94610D5EDCD
:1022F0000D1A081A00EE900AB8EEE01AF0EE480A3D
:1023000041EE810A20EE800A8DED0D0AB7F8140621
:1023100000EE100AF8EE400A10EE900A9FEDB60AA1
:10232000984201DD70EEC00AB5F91400802101EE7B
:10233000100AB7F880060DF11402B8EEC11A01EACE
:10234000501BB7F81006C1EE20AA00EE900AF8EE76
:10235000600ACDED050AB7F8500600EE900A00209D
:10236000F8EE600ACDED060A02EB8001A14B91ED7B
:10237000000A10EE104A9C4205DDDFED9F0A30EEA8
:10238000600A81ED000A20EE2A0A401C022881ED35
:10239000000AE9DB504605F091F89FED98BB53EC3D
:1023A0001B2B04F0A1FFEC6941EC190B204605F052
:1023B00085F853EC192B04F08BFD9FED929B53ECA9
:1023C000192B04F0ADFAB3EE090AD5ED080A38EE80
:1023D000C00A41EC1C0BB7EE008A8DED070AB9F973
:1023E000580200EE808A00EE100AB8EEC00A28EE0D
:1023F000000A10EE100A05F061F853EC1C2B04F0F3
:1024000067FD41EC1C0B059805F058F853EC1C2BAC
:1024100004F06AFF04F052FA059095F82510504632
:1024200059451DD105F04AF853EC1B2B04F05CFF15
:1024300041EC1C0B204605F041F853EC1C2B04F03A
:1024400047FD53EC192B04F06BFA41EC1C0BB9F966
:102450005A0200EE100AB8EEC00A28EE000A20E088
:1024600005F02CF853EC1B2B04F03EFF41EC1C0B49
:10247000204605F023F853EC1C2B04F029FD53EC07
:10248000192B04F04DFA41EC1C0BB9F95A02D9EDA5
:10249000970A00EE100AB8EEC00A30EE200A20EECD
:1024A000080A10EE100A05F009F853EC1C2B04F092
:1024B0000FFD41EC180B069805F000F853EC182BB3
:1024C00004F012FF04F0FAF99FED500A069050480C
:1024D00080ED000A9FED4F0A002480ED010AE2170B
:1024E00004EB926104EBD26089114011494200EB88
:1024F000410046B204EBD4704010404204EB40006F
:10250000A31C70404FEAE37C4FFA80F803EB9C7306
:10251000E01C4FEAE07C9B1000EB9C70611CA3EB7D
:10252000A000CB1701EB937100EBA10004EB9271BB
:10253000A0EBA1007242012101EB4201484340B2ED
:102540001490BBF1000F00D1B046B7F882064045A9
:1025500045D137F81400274900EE100AB8EE400ABA
:1025600010EE100A884203DDDFED230A30EE600A28
:10257000281990F94C1C60EE2A8A00EE101A90F986
:102580004D0FF8EEC00A9DED110A80EE80DA00EEE4
:10259000100A5046F8EEC00A9DED100A80EE808ABF
:1025A00004F08CFF53EC1B2B04F09EFE41EC1C0B43
:1025B00018EE100A04F082FF53EC1C2B04F088FC88
:1025C00053EC192B04F0ACF905EB440841EC1C0B5F
:1025D000B8F94C0600EE100AB8EEC01A1CE04BE148
:1025E00066666666661271400000000000000040EA
:1025F0000000204200FEFF460000804766666666D7
:1026000066660A40000000000000F03F0000800005
:10261000E00B0020FFFF7F7FB7EE008A9DED070AE9
:10262000F0EE480A4DEE000A21EE200A10EE100AE4
:1026300004F044FF53EC1C2B04F04AFC41EC1C0B4F
:1026400018EE900A04F03AFF53EC1C2B04F04CFEF9
:1026500004F034F995F8251000EE100A594514D00D
:102660004FF0FF3000EB460000EE900A99ED991A0A
:102670001498F8EEE00A01EE200A00EE900A99EDB7
:10268000981AF8EEE00A01EE600A0E9905A800EB30
:102690008100D5ED060A90ED001AB8F84A0000EE68
:1026A000C10ADDED2C0AC0EE208A04F0C1FB41EC2A
:1026B0001C0B0F9804F002FF9FED821B53EC112BB3
:1026C00004F006FC53EC1C2B04F0E6F904F0F6F8D9
:1026D000D5ED0A1A9DED071AF7EE000A00EE100A72
:1026E00041EE810A286B20EE808A28EE080A60EE0F
:1026F000080AB0EE680A08EE0A0A20EE80DA04F052
:10270000DDFE41EC1C0B1DEE100A04F0D7FE41EC7F
:10271000100B01F015FA01F013FA53EC1C2B51ECDD
:10272000100B04F0D5FB04F0C9F806461AEE100AA7
:1027300004F0C4FE41EC1E0B304604F0BFFE41EC39
:102740001D0B286B04F0BAFE53EC1F2B04F0C0FBEA
:10275000B0EE491AF0EE691A53EC112B04F0ECFCC0
:1027600041EC1C0B18EE100A04F0A8FE53EC1C2BD5
:1027700004F0AEFB53EC1D2B04F0D2F841EC1C0B23
:1027800018EE900A04F09AFE53EC1C2B04F084F926
:1027900053EC1E2B04F0C4F841EC100B01F0D0F9FF
:1027A00001F0CEF953EC1F2B51EC100B04F09CFD03
:1027B00004F084F800EE100AB5F9420000EE900A29
:1027C000F8EEE00AF4EEC00AF1EE10FA01DD0020A6
:1027D0001AE0B5F9440000EE900AF8EEE00AF4EED3
:1027E000C00AF1EE10FA01DD01200DE0B5F9460056
:1027F00000EE900AF8EEE00AF4EEC00AF1EE10FAEC
:1028000001DD022000E0032005EB800191ED0B1AB1
:1028100005EB4001B1F9401000EE901A0AA901EB56
:102820008000F8EEE00A70EE600AB7EE000A01EEF2
:10283000200AD0ED000A60EE880A20EE200AC8EED9
:10284000800A30EE8A0A10EE100A04F037FE41ECDE
:10285000100B01F075F901F073F9B0EE4F1AF0EEBC
:102860006F1A53EC112B51EC100B04F03DFD04F0EA
:1028700025F8309941F82400309800EB8401134882
:1028800091ED000AD0ED000AB4EEE00AF1EE10FA84
:1028900001DD80ED000A91ED000AD0ED010AB4EEF1
:1028A000E00AF1EE10FA01D280ED010A641CB4F5E1
:1028B000407FFFF614AE1CB0BDEC108B05B0BDE838
:1028C000F08F00008DEDB5A0F7C6B03EE00B002004
:1028D0000B464FF450724FF4105100F0A3B970B58D
:1028E0000C460546FEF79EFE21462846FEF716FEDC
:1028F00021462846FEF7EAFA21462846FEF776FEEC
:10290000B5F870002146C0F3013084F82400284651
:10291000FEF7E4FA21462846FEF7FEFA214628464D
:10292000FEF74CF921462846FDF78CFF2146284644
:10293000FEF770FD21462846FEF75EFB214628463D
:10294000FEF77AFC21462846FEF7E4F821462846A1
:10295000BDE87040FEF71ABA70B5A2B00C46054645
:102960004FF4004620AB01223146284600F05AF9C8
:10297000002848D1BDF8800010F0080FF2D03022B6
:102980003146284600F098F9411C3CD023464FF4CC
:1029900040724FF48061284600F044F9002832D19B
:1029A0006B4640224FF4E061284600F03BF90028D6
:1029B00029D121AB012248F20D01284600F032F95D
:1029C000BDF88410A4F88016BDF88010002801F02E
:1029D0000101A4F8821616D1684600F015FA58B91C
:1029E0000020694604EB400331F81020401CC0B2BF
:1029F000A3F800264028F5D3204600F043FA00282B
:102A000001D1B4F8820622B070BD000070B50C464A
:102A10002DED068B054600F087F8B5F84006B0EEC0
:102A2000409A00EE100A3649B8EE408A9FED350A0A
:102A300018EE100A884201DD38EE408AB5F800062B
:102A400000EE900AF8EE608A18EE900A884201DDE6
:102A500078EEC08A9FED2C1B9FED2D0B00F048FAFD
:102A6000B0EE40AA94ED040AF0EE60AA48EE008AA7
:102A700088EE280A10EE100A04F020FD53EC1A2B01
:102A800004F026FA03F01AFF0546A08904F0D0F9F5
:102A900041EC180B19EE100A04F010FD9FED1E1BFF
:102AA00053EC112B04F020FC41EC190B606804F08E
:102AB00005FD53EC192B04F00BFA9FED191B53EC99
:102AC000112B03F02DFF41EC190B284604F0F6FC06
:102AD00053EC192B03F0E0FF53EC182B04F004FC2B
:102AE00003F0ECFE00EE100AD4ED020ABDEC068BFA
:102AF00080EE201AB3EE090A31EE000A70BD000024
:102B000000FEFF4600008047000000000000324049
:102B100000000000000000406666666666660A40C7
:102B2000000000000000F03F10B50C462DED068BB4
:102B3000B0F854162D4A00EE101AB8EE408A18EE7E
:102B4000101A914203DD9FED2A0A38EE408AB0F850
:102B50008006C0F3812004F054F99FED26AB41ECD0
:102B6000110BB0EE4A0AF0EE6A0A00F0C1F9B0EEBD
:102B7000409AF0EE609A94F8240004F059F941EC80
:102B8000110BB0EE4A0AF0EE6A0A00F0B1F9B0EEAD
:102B9000401AF0EE601A53EC192B51EC110B03F0B4
:102BA0007BFF03F08BFE00EE100AB4F9020000EE8A
:102BB000900AB4F90000F8EEE00A50EE080A00EEC0
:102BC000100AB8EEC01A80EE810A10EE100A04F066
:102BD00075FC9FED0A1B53EC112B03F0A1FE03F0D3
:102BE0006DFEBDEC068B00EE100A10BD00FEFF4628
:102BF0000000804700000000000000406666666636
:102C000066660A4010B501F0D1F80549034808602E
:102C1000BDE81040084601F0D1BD0000005400405E
:102C2000485001202DE9F043ADF28C6D89460746EE
:102C30001C46164600254FF4D06103A8FDF7BBFBE8
:102C40007806020E4FF6FF700DF10C084CF250336F
:102C500000EA4600CDF80080CDE901034B46022191
:102C6000104802F049F807460F490E4802F0B6F93D
:102C700010B10EA0FDF72CFB2FB14FF0FF300DF27D
:102C80008C6DBDE8F083404608E069004218415C65
:102C900052786D1C02EB012124F8021BB542F4DBD3
:102CA0000020ECE748500120404B4C004552525464
:102CB000494D4F55540000002DE9FF4107460020C3
:102CC000039014467806020E200A88468DF80C0000
:102CD000022003A9CDE900104CF2503601468DF8D0
:102CE0000D4043460296104802F090F805463146E2
:102CF0000D4802F073F910B10CA0FDF7E9FA25B107
:102D00004FF0FF3004B0BDE8F0810B4B012241468B
:102D10003846FFF787FF08480088A04202D06FF0CE
:102D20000100EFE70020EDE74850012045525254E2
:102D3000494D4F5554000000E80B002038B548F2CB
:102D40000D0405466B4601222146FFF76BFF002864
:102D500007D1BDF80000214640F480522846FFF715
:102D6000ABFF38BDF8B505464807860D48F20D049F
:102D70006B46012221462846FFF754FF002808D160
:102D8000BDF80000214620F4607232432846FFF768
:102D900093FFF8BDFEE7704770477047704700002B
:102DA0001248016841F4700101601148016841F066
:102DB0000101016001688907FCD5416821F0030128
:102DC0004160416811F00C0FFBD10168094A1140C4
:102DD00001600021416001634FF41F0181600349DC
:102DE0004FF00060803908607047000088ED00E017
:102DF00000100240FFFFF2FE014803F023BC000078
:102E0000EC460120FEE7000010B5028847F6FF718E
:102E10006FF007038A422DD05FF0080230F81240AD
:102E20008C4227D0521C132AF8DB142230F81240AF
:102E30008C421FD0521C172AF8DB182230F812409F
:102E40008C4217D0521C212AF8DB282230F812407D
:102E50008C420FD0521C332AF8DB342230F8124057
:102E60008C4207D0521C372AF8DB382230F8124047
:102E70008C4201D1184610BD521C402AF6DB0020BE
:102E800010BD000070B50022114647F6FF734FF4E5
:102E9000407400BF30F811509D4208D1B0F88266EE
:102EA00002F00105B54202D16FF0070070BD521C5F
:102EB0002031D2B2A142EDDB002070BD03B40198F5
:102EC0004100009850EAC12018BF04204A0D18BFE5
:102ED00040F0010040F2FF72B2EB515F08BF40F0DA
:102EE0000200012808BF052002B070470000000062
:102EF0002DE9F04D2DED040B2DED0E8B96B0DDE997
:102F00002550279CDDF890A025F0004624F00048CD
:102F1000BAF1000F14BF0121002101EB4502FC4969
:102F200053184A1093422AD3002814BF01230023C8
:102F300003EB44030B44F7498B4220D358EA0001CA
:102F40009FEDF59B76D0DFF8D8B35D4503D1BAF19C
:102F5000000F05D188E0BAF1000F08BF002100D0B2
:102F6000012101EB450111F5001F08D8002814BF0D
:102F70000121002101EB440111F5001F0BD99DED4A
:102F8000261B9DED240B16B0BDEC0E8B04B0BDE8E6
:102F9000F04D00F0A9BE0027002DBCBFE1498845D7
:102FA00021DAE1498845A8BF02271CDAC3451ADCAB
:102FB000DE4901EB2851142908DDC1F1340220FA61
:102FC00002F101FA02F282420DD108E058B9C1F1D2
:102FD000140228FA02F101FA02F2424503D101F08B
:102FE0000101C1F1020756EA0A0124D1002C22DABC
:102FF000002D18BF022F01D0012F0AD00220FDF7AB
:103000000AFA16B0BDEC0E8B04B0BDE8F04D00F02E
:1030100053BE0220FDF7FFF900F04EFE51EC100BFD
:1030200003F040FC41EC100B16B0BDEC0E8B04B06D
:10303000BDE8F08D18E09FEDBEAB9FEDBF8B002883
:1030400071D1B848804522D105F1804010F580103B
:1030500008BFBAF1000F07D0B3450ADC002CA8BFA7
:103060009DED260BE0DA0DE0B0EE490AF0EE690ABC
:10307000DAE7002C06DA9DED260B51EC100B03F07D
:1030800011FC6FE0AE48784490ED000BCCE7D845DA
:103090004DD1002C48DA2EB186423AD1BAF1000F58
:1030A00042D126E0BAF1000F13D00220FDF7B3F9A8
:1030B00000F036FE8DED020B9DED240B8DED000B27
:1030C00010EE900A039961F31E0003909DED020B30
:1030D000AAE78DED02AB9DED240B1AEE901A10EECF
:1030E000900A8DED000B61F31E0003909DED020B25
:1030F0009AE78DED028B9DED240B18EE901A10EEE1
:10310000900A8DED000B61F31E0003909DED020B04
:103110008AE709DA9DED240B51EC190B53EC102BC7
:1031200003F0BAFC1EE020E09DED240B7CE7864214
:103130001BDAB4F1804F0DD0A4F10050B0F1FF5074
:1031400013D1002D11DB9DED240B51EC100B02F07F
:1031500087F907E09DED240B53EC102B51EC100B7D
:1031600000F0C2BC41EC100B5EE79DED240B51EC6E
:10317000100B01F05FF9BAF1000FCDE90E0142D159
:103180009FED710B46B3A6F1E040B0F17F600CD02B
:103190005E4538D1002D00DAA7B3022F0CBF012005
:1031A0004FF0FF3003F02DFEDCE7002D01DD002C99
:1031B0000DDA002D01DD002C1FDB002D16DA002CAE
:1031C00014DB012F08BF9FED620B3FF42DAFB0EE73
:1031D0004A0AF0EE6A0A27E7022F18BF002D0CD02A
:1031E000012F0AD1002DFFF61FAF06E0002DB8BF5A
:1031F000002C08DA012F3FF417AFB0EE480AF0EECA
:10320000680A11E71BE0012000EBE57050EA0701B6
:1032100015D0791EB0EE498AF0EE698A084308BFDE
:103220009FED4D8B4E480025804570DD4D494E4841
:10323000884514DDB0420DDB002C19DB2FE00120A6
:10324000FDF7E9F816B0BDEC0E8B04B0BDE8F04D0B
:1032500000F056BDB34502DC002C09DC1FE08642BD
:1032600002DA002C1BDA03E05E452BDD002C16DDB4
:103270000220FDF7D0F800F053FD8DED020B53EC6A
:103280001A2B51EC180B03F023FECDE90001039932
:10329000019861F31E0003909DED020BC4E602202D
:1032A000FDF7B9F800F04CFD10EE901A18EE900AF8
:1032B0008DED020B8DED008B61F31E0003909DEDF3
:1032C000020BB1E69DED0E0B53EC192B51EC100BDC
:1032D00004F00AF89FED260BCDE9080153EC102B02
:1032E0009DED080B51EC100B03F0F2FD9FED221B3E
:1032F00053EC112B03F020FF9DED081B53EC112B19
:1033000003F0E6FD9FED1E1B53EC112B3CE08CE01F
:10331000FFFF1F00FFFF0F00000000000000F03F54
:103320000000F03F0000F07F0000404301FCFFFF81
:10333000000000000000F07F00000000000000001E
:10334000DE460000000000000000000000000080D9
:10335000000000000000F0FF000000000000F0BFCF
:103360000000E0410000F043FFFFEF3F00000000DD
:10337000000000000000D03F555555555555D53F2C
:10338000000000000000E03F03F0D6FE9DED080BBA
:1033900041EC1A0B53EC102B51EC100B03F098FD81
:1033A00053EC1A2B03F094FD41EC1A0B9FEDFE0B2E
:1033B00053EC102B9DED080B51EC100B03F088FD26
:1033C00041EC1B0B9FEDFA0B51EC1A0B53EC102B3D
:1033D00003F07EFD41EC1A0B9FEDF70B53EC102B25
:1033E0009DED080B51EC100B03F072FD53EC1A2B02
:1033F00003F07AFF41EC1A0B51EC1B0B53EC1A2B28
:1034000003F08EFA0690CDE906519DED060B53ECC4
:103410001B2B51EC100B03F067FF53EC1A2B03F03E
:103420008BFE41EC100B00F0A1B90020B6F5801F17
:103430000EDA9FEDE30B53EC102B9DED0E0B51ECD0
:10344000100B03F045FDCDE90E016FF034000E4680
:1034500000EB2650A0F2FF37C6F31300DA4940F024
:103460007F6646F040568842D8BF002408DDD74921
:103470008142C8BF012403DC0024A6F580167F1C0E
:10348000D348784400EBC4000F9690ED00CB9DED3F
:103490000E0B53EC1C2B51EC100B03F025FF9DED94
:1034A0000E0B41EC1B0B53EC1C2B51EC100B03F0DF
:1034B00037FA41EC100B51EC190B53EC102B03F0C5
:1034C000EBFA41EC1D0B51EC1B0B53EC1D2B03F0E5
:1034D000FFFC41EC1A0BBF488DED10AB7844109502
:1034E00090ED000B4FF0005040EA660000EB844086
:1034F0008DED080B00F5002009909DED080B53ECB5
:103500001C2B51EC100B03F0EFFE9DED0E1B53EC4A
:10351000112B03F011FE41EC100B53EC102B9DED21
:10352000100B51EC100B03F0D3FC9DED080B41EC9C
:103530001C0B53EC102B9DED100B51EC100B03F0FA
:10354000C7FC53EC1B2B03F0F7FD53EC1C2B03F0D3
:10355000CBFE53EC1D2B03F0BBFC41EC1C0B53ECDE
:103560001A2B51EC1A0B03F0B3FC41EC1B0B9A48DD
:103570000621B0EE4B0AF0EE6B0A784400F01DFB1A
:10358000B0EE401AF0EE601AB0EE41DAF0EE61DA19
:1035900053EC1B2B51EC1B0B03F09AFC53EC1D2B33
:1035A00003F096FC9DED100B41EC1B0B53EC1A2B1A
:1035B00051EC100B03F0B4F953EC1C2B03F088FC16
:1035C00053EC1B2B03F0ACF99DED100B41EC1B0BE6
:1035D00053EC102B51EC100B03F07AFC41EC1D0B5B
:1035E0009FED7FEB53EC1E2B03F09AF953EC1B2B52
:1035F00003F096F90890CDE908519DED080B53ECC6
:103600001E2B51EC100B03F06FFE53EC1D2B03F03F
:103610006BFE53EC1B2B03F08FFD9DED080B41EC73
:103620001D0B53EC102B9DED100B51EC100B03F008
:103630004FFC41EC1B0B53EC1A2B51EC1D0B03F010
:1036400047FC9DED080B41EC1A0B53EC102B51EC91
:103650001C0B03F03DFC53EC1A2B03F061F941EC19
:103660001A0B51EC1B0B53EC1A2B03F059F90C906D
:10367000CDE90C519DED0C0B53EC1B2B51EC100BB9
:1036800003F032FE53EC1A2B03F056FD41EC1B0BFA
:103690009FED550B53EC102B9DED0C0B51EC100BCB
:1036A00003F016FC41EC1A0B9FED510B51EC1B0B78
:1036B00053EC102B03F00CFC41EC1B0B9FED4E0B5D
:1036C00053EC102B9DED0C0B51EC100B03F000FC98
:1036D00053EC1B2B03F024F941EC100B48487844C1
:1036E00000EBC40090ED001B51EC100B53EC112BC0
:1036F00003F016F941EC1B0B384603F082FBCDE9D1
:10370000080153EC1B2B51EC1A0B03F009F941ECA7
:10371000100B3C48784400EBC40090ED00CB51EC1A
:10372000100B53EC1C2B03F0FBF89DED081B53EC26
:10373000112B03F0F5F80690CDE906519DED080B2D
:1037400053EC102B9DED060B51EC100B03F0CCFD50
:1037500053EC1C2B03F0C8FD53EC1A2B03F0C4FDF3
:1037600053EC1B2B03F0E8FC41EC100B9DED261BEA
:1037700053EC102B8DED001B00959DED260B51ECAD
:10378000100B03F0A5FB9DED000B41EC1A0B53EC65
:10379000102B9DED260B51EC100B03F0A5FD9DEDBC
:1037A000061B53EC112B2FE0000000604715F73F7C
:1037B000FE822B654715F73F44DF5DF80BAE543EA4
:1037C00000000000000040438E9803007AB60B0012
:1037D0005A420000884200009241000000000000B0
:1037E0000000000000000840000000E009C7EE3FB4
:1037F000FD033ADC09C7EE3FF5015B14E02F3EBE46
:103800001E400000D83F000003F062FB53EC1A2B6F
:1038100003F086F89DED060B41EC1A0B53EC102BD0
:103820009DED000B51EC100B03F052FBCDE90C01A8
:103830009DED0C0B51EC1A0B53EC102B03F070F8B0
:10384000CDE902010C46AA498C422FDB611A0843DC
:1038500018D19DED0C0B53EC102B9DED020B51EC90
:10386000100B03F041FD41EC1B0B9FEDA30B51EC42
:103870001A0B53EC102B03F053F853EC1B2B03F0F3
:1038800025FC2DD20220FCF7C6FD00F049FA10EE0F
:10389000901A18EE900A8DED020B8DED008B61F3FE
:1038A0001E0003909DED020BFFF7BEBB944A24F06F
:1038B0000041914214D39349214408437FF4EFAC73
:1038C0009DED0C0B53EC102B9DED020B51EC100BEE
:1038D00003F00AFD53EC1A2B03F0F8FB7FF6DFAC84
:1038E00024F000408849894A002601EB2051824299
:1038F0002BDA481C4FF4801121FA00F02044844A4E
:10390000C0F30A517A44A1F2FF3192ED000B814AD3
:103910008DED080BCA4020EA0202C0F3130040F408
:103920008010C1F1140120FA01F60992002CB8BFF1
:1039300076429DED080B53EC102B9DED0C0B51ECDA
:10394000100B03F0D1FCCDE90C019DED0C0B51ECFB
:103950001A0B53EC102B02F0E3FF9FED6F0B089056
:10396000CDE9085153EC102B9DED080B51EC100BD9
:1039700003F0AEFA41EC1B0B9FED690B53EC102BDF
:103980009DED080B51EC100B03F0A2FA9DED0C0B12
:1039900041EC1C0B53EC102B9DED080B51EC100B64
:1039A00003F0A2FC53EC1A2B03F0C6FB9FED5E1B49
:1039B00053EC112B03F08CFA53EC1C2B02F0B0FFEC
:1039C00041EC1A0B51EC1B0B53EC1A2B02F0A8FF25
:1039D000CDE902019DED020B53EC1B2B51EC100BBA
:1039E00003F082FC53EC1A2B03F0A6FB9DED020BB7
:1039F00041EC1A0B53EC102B51EC100B03F068FA4E
:103A0000CDE908014A489DED080B0521784400F0F6
:103A1000D4F89DED081B51EC100B53EC112B03F067
:103A200057FA9DED021B53EC112B03F085FBCDE9FA
:103A300006019DED020B53EC1A2B51EC100B03F019
:103A400047FA53EC1A2B02F06BFF9FED3B0B41EC56
:103A50001A0B53EC102B9DED060B51EC100B03F0E1
:103A600043FC9DED060B41EC1B0B53EC102B9DED25
:103A7000020B51EC100B03F02BFA53EC1B2B03F051
:103A80000BF853EC1A2B03F02FFC9DED021B53ECAB
:103A9000112B03F029FC53EC192B03F04DFBCDE95E
:103AA000020101EB065001150029C8BF039015DC87
:103AB0009DED020B324651EC100B03F0ACFDFFF70D
:103AC000FDF9042808BF00F03BF932469DED020BDA
:103AD00051EC100B03F09FFDCDE902019DED020BAF
:103AE00051EC180B53EC102B03F0F2F9FFF73ABB33
:103AF0000000904000000000FE822B654715973CB7
:103B000000CC904000346F3F01FCFFFF0000E03F1D
:103B1000603E0000FFFF0F0000000000432EE63F64
:103B2000396CA80C615C20BEEF39FAFE422EE63FEC
:103B3000303D0000000000000000000000000040D8
:103B400000B52DED048BB0EE409AF0EE609A83B094
:103B500051EC190B03F0FCFA41EC180B18EE100AAB
:103B600018EE901A8DED008B002818BF0120084335
:103B700020F00040C0F17F6000F1E040C00F14D0A1
:103B800019EE101A19EE900A8DED009B002918BF4E
:103B90000121084320F00040C0F17F6000F1E040C7
:103BA000C00F04BF0120FCF736FCB0EE480A03B09A
:103BB000F0EE680ABDEC048B00BD70B504462DED37
:103BC000028B4D1E00EBC500B0EE408AF0EE608A1D
:103BD00090ED000B35F0060017D053EC182B51EC8C
:103BE000100B03F075F941EC100B6D1E04EBC500D2
:103BF00090ED001B51EC100B53EC112B02F090FEDA
:103C000041EC100B35F00600E7D1022D36D0042D23
:103C10001CD0062D1CBFBDEC028B70BD53EC182BC5
:103C200051EC100B03F054F994ED0A1B53EC112BDB
:103C300002F076FE53EC182B03F04AF994ED081BC2
:103C400053EC112B02F06CFE41EC100B53EC182BD3
:103C500051EC100B03F03CF994ED061B53EC112BC7
:103C600002F05EFE53EC182B03F032F994ED040BD6
:103C700053EC102B02F054FE41EC100B53EC182BBC
:103C800051EC100B03F024F994ED021B53EC112BB3
:103C900002F046FE53EC182B03F01AF994ED001BCA
:103CA00053EC112B02F03CFEBDEC028B41EC100BEF
:103CB00070BD0000000000009FED070B10B553EC35
:103CC000102B9FED070B51EC100B02F0E5FE41ECC1
:103CD000100B10BD000000000000000000000000FC
:103CE000000000000000F03F10B553EC112B51EC28
:103CF000100B02F015FE41EC100B10BD000000008F
:103D00009FED050B10B553EC102B51EC100B02F08E
:103D1000C3FE41EC100B10BD0000000000000000CD
:103D20009FED050B10B553EC102B51EC100B03F06D
:103D3000CFF841EC100B10BD000000000000007037
:103D40009FED050B10B553EC102B51EC100B03F04D
:103D5000BFF841EC100B10BD000000000000001087
:103D600070470000074A0028106807D040F00200A2
:103D70001060106861F300001060704720F00200CE
:103D8000F6E7000004580140014908607047000050
:103D90000C5801400149086070470000105801406C
:103DA0000149086070470000145801401CB500F03C
:103DB00003FB0121124800F06BFA684600F08EFC0C
:103DC00001208DF8070004208DF8040010218DF8E3
:103DD000061007210B4C00918DF80500694620461E
:103DE00000F088FC0221204600F076FC01212046EC
:103DF00000F072FC0421204600F06EFC1CBD0000A7
:103E0000020018000008014010B50024812102F0D2
:103E1000CBF9204610BD00207047002070470020DD
:103E2000704700002DE9F05F82464FF0000B01F073
:103E30007F005B4601285AD1304C2078022856D1A9
:103E400004F10805E68868782D4F4FF480784FF02C
:103E500000098EB161888E421CD2E168C6EBC610A3
:103E600001EB40014FF0FE0207F10200FCF73CFAC3
:103E7000761C4346E68031E000F0FD0080F0010052
:103E80006870FE22B81CE168FCF72EFA0120434658
:103E9000E08023E022D140F002006870E168C6EBC8
:103EA000C61001EB4001A28807F10200FCF71CFAE2
:103EB000A088801C83B213480178D9B10026124A29
:103EC000965D4EB102F80190B1B1002101700B482E
:103ED000103050F82100E060A4F80690287838707F
:103EE00068787870064A8121504602F0F9F9584600
:103EF000BDE8F09F0126E2E70121E7E75803002033
:103F000018490120000000200500002070B50025A0
:103F10000446812102F055F94FF480730322812178
:103F2000204602F093F9284670BD0020704700003B
:103F30002DE9F0470C46416822784FF00008496AA5
:103F400012F060020B464FF0010540D0202A55D1F7
:103F50006178022682290ED004DC012925D081292E
:103F600004D108E0832906D0872904D001F0FEFFA0
:103F70000120BDE8F087074603F10D00402181468E
:103F8000FCF7F7F96088B5EB102F02D1E2881D49E4
:103F900004E0E288B6EB102F05D11B494FEA070079
:103FA00001F0D0FF2CE04946F8E7E288194612B349
:103FB0006388B5EB132F01D1124903E0B6EB132F41
:103FC00003D1114901F0A8FF1AE00D31FAE7627838
:103FD000062A13D00A2A02D00B2A0FD101E00122AF
:103FE000DEE76288012A09D8D2B208481A70012A8D
:103FF00002D00021017003E0057001E001F0B6FF7E
:104000004046B6E7730400209504002058030020C2
:1040100070B5104B00241978012916D10F490E4DA7
:104020000A78AD5C3DB992B100220A70094910319D
:1040300051F82210D9600021D98002211970054A57
:104040000B460832812102F04BF9204670BD012257
:10405000EBE70000580300200500002000000020CE
:1040600030B5114A1188B9B11369C1F12004A340D8
:10407000C91D1361CB08133200210C460AE000BFB2
:1040800012F8015900F8015BFF2D01D100F8014B36
:10409000491C89B29942F3D3FF2100F8011BD921B1
:1040A00000F8011B30BD00000005002002494A68ED
:1040B00060F307124A6070470010024002494A68E4
:1040C00060F30A224A6070470010024002494A68C1
:1040D00060F3CD224A607047001002400549012874
:1040E000486D03D020F030004865704740F0300044
:1040F000FAE70000001002400F4A052810D2DFE85E
:1041000000F003070B101500106861F3000006E0D3
:10411000106861F3104002E0106861F318601060ED
:104120007047106A61F3000010627047506A61F3D3
:1041300000005062704700000010024030B5014698
:1041400000F016F902002F4B2F4805D02F4C012A02
:104150000CD0022A08D10BE0426D920504D5026B07
:10416000920101D52A4A24E00B6023E00C6021E093
:104170004268C2F3004542684368C2F38342C3F316
:10418000417373B90F2A0CD0921C75B143689B031D
:104190000DD5436DC3F301339B1CB4FBF3F35343C1
:1041A000E2E702EB0312521CEFE71A4B00E0174B59
:1041B0005A430A604268184BC2F303129B5C0A68B8
:1041C000DA404A604368144CC3F30223183CE35CB2
:1041D00022FA03F3CB6043680834C3F3C223E35CE1
:1041E000DA408A6043684068C3F30073C0F38130EB
:1041F00040EA830004F10803185CB2FBF0F00861A8
:1042000030BD000000127A0000100240001BB70011
:10421000006CDC0200093D00BA760008014600206F
:1042200001F01F0301229A40034B03EB114109687F
:104230008A4300D1012070470010024030B50024AD
:104240004FF4405500E0641C1120FFF7E7FF012800
:1042500001D0AC42F7D31120FFF7E0FF012800D0D6
:10426000002030BD02490A6B60F359620A6370474F
:104270000010024000B503460120FFF7F3FF03489A
:10428000416D63F34921416500BD0000001002400B
:1042900010B5074C00F01F0301229A4004EB1040B8
:1042A0000129016802D09143016010BD1143FBE771
:1042B0000010024010B5074C00F01F0301229A4085
:1042C00004EB10400129016802D09143016010BD48
:1042D0001143FBE70010024010B5104BB8B15C6809
:1042E00044F480345C600128586814D040F40030F5
:1042F0005860586861F3954058605868090961F33F
:104300005E705860586862F3DF70586010BD58687E
:1043100020F48030ECE720F40030E9E700100240A0
:104320000D48016841F00101016001688907FCD571
:10433000416821F003014160416811F00C0FFBD18D
:104340000168064A114001600021416001634FF499
:104350001F0181607047000000100240FFFFF2FE65
:1043600002494A6860F301024A6070470010024047
:1043700002484068C0F3810070470000001002400E
:1043800005494A6860F397524A608208486862F3B8
:10439000DB604860704700000010024010B5044622
:1043A000012801D1FFF766FF0248416D64F308213F
:1043B000416510BD0010024010B5042001F018F94D
:1043C000064807490068B0FBF1F1064841604168C2
:1043D0004FF47A725143816010BD00004C030020FD
:1043E00040420F001403002030B5114C00234FF061
:1043F000E0211AE0A268322805D932256A434A61D1
:10440000323880B202E05043486100208B610A6973
:1044100042F001020A610A69D50701D0D203FAD538
:104420000A6922F001020A618B610028E2D130BDE5
:104430001403002082B0CDE9000121F0004001907A
:104440009DED000B02B051EC100B70470248C069A3
:10445000C0F340007047000000200240044801699A
:1044600041F080010161016D41F0800101657047FB
:104470000020024008490320CA68D20701D000206A
:104480007047CA68520701D501207047C968C9063C
:10449000FBD50220704700000020024000B5034613
:1044A000FFF7E8FF03E000BFFFF7E4FF5B1E18B172
:1044B000002B00D1042000BD002BF5D1FAE700004D
:1044C000044803494160044A4260416442647047C1
:1044D0002301674500200240AB89EFCD30B5A5250B
:1044E000FFF7B4FF00B10025164C1548A060164830
:1044F000A06020698005FCD5206940F02000206183
:10450000206940F0400020614FF08040FFF7C6FF77
:10451000216921F02001216103280FD1A52D0DD1A2
:10452000206940F010002061084805804FF4801099
:10453000FFF7B4FF216921F01001216130BD0000B7
:104540002301674500200240AB89EFCD00F8FF1F33
:104550000E4A10B5904203D1A52901D0032010BD09
:104560000C4C0B4AA2600C4AA26022699205FCD551
:10457000226942F01002226101804FF48010FFF79F
:104580008DFF216921F01001216110BD00F8FF1F8E
:104590002301674500200240AB89EFCD70B5074D80
:1045A00004468021284601F06EF80028F9D0A1B217
:1045B000284601F05FF8204670BD00000038014039
:1045C00010B5054905A002F041F90A4908800248E2
:1045D0004860084610BD0000684A012056697274A0
:1045E00075616C20766964656F20436F6E666967DC
:1045F00000000000DC04002000487047C4040020D4
:1046000000487047BC04002010B5054905A002F021
:104610001DF90A49088002484860084610BD00009C
:10462000684A01205669727475616C207669646508
:104630006F20496E7465726661636500DC0400205A
:1046400000487047CC04002010B5054905A002F0D1
:10465000FDF80649088002484860084610BD000081
:10466000684A01204172746572790000DC04002000
:104670000020704710B5054905A002F0E7F806498B
:10468000088002484860084610BD0000684A0120C2
:104690004154766964656F00DC0400200020704797
:1046A0000A4810B50168001D0468001D006808185C
:1046B00009D00822064901F08FFF05490422103174
:1046C000204601F089FF0248123810BDE8F7FF1FAD
:1046D000E604002041617047016170474FF6FF71A9
:1046E0000160002181710171042141710121C171B9
:1046F00070470000F0B50A8893B28A79032A43D044
:10470000F2B30C79C97902F0080204F004042243E0
:1047100001F0030152EA010213F0FF0F4FF001050F
:104720004FF00F0415D0002105FA01F61E420DD0FE
:10473000D0F800C08F0004FA07F62CEA060CC0F887
:1047400000C0066802FA07F73E430660491C0829C4
:10475000EAD3FF2B17D91E0A5FF0000105FA01F317
:1047600033420BD047688B0004FA03FC27EA0C079E
:104770004760476802FA03F31F434760491C00E0A3
:1047800004E00829EAD3F0BD0022C5E7497901F029
:104790000F02182903D02829BED14361BCE7036169
:1047A000BAE71AB141F001010161704701F0FE0161
:1047B000FAE7026861F38A220260704710B5044686
:1047C000006800F085FB204600F01AF92068BDE87B
:1047D0001040012100F005B80069C0B270470161C6
:1047E0007047026861F300020260704770B50446CA
:1047F000132020764FF480752946206800F070F869
:1048000018B12946206800F05AF84FF40076314676
:10481000206800F065F818B13146206800F04FF8C4
:104820004FF480663146206800F05AF818B13146DE
:10483000206800F044F84FF400663146206800F02C
:104840004FF818B13146206800F039F84FF480561F
:104850003146206800F044F818B13146206800F075
:104860002EF84FF480463146206800F039F818B130
:104870003146206800F023F84FF4004631462068A6
:1048800000F02EF818B13146206800F018F82946DB
:104890002068BDE87040002200F0A8B8C16839B1B6
:1048A000012907D0022907D0032907D100F034BB22
:1048B00000F0A7B900F04DB900F058BB704701F403
:1048C0005F41C94389B241614169890700D5816966
:1048D0004169C90603D5016841F0010101607047D3
:1048E00008B500220A0F21F07F41009206D08069AE
:1048F000090C0090084000D0012008BD4069F8E78D
:10490000F0B50446006885B016460F46002520F035
:10491000010020606846FFF711FC2F48844202D056
:104920002E48844201D1039D03E02D48844200D1EA
:10493000029D2C486168B5FBF0F080B260F307017E
:10494000616029498E4219D87100B5FBF1F189B235
:10495000042900D20421E26961F30B02E261E169FA
:1049600021F40041E161401C3F2805D9206A40F054
:104970003F00206205B0F0BD216A28E067B106EB78
:10498000C60101EB0611B5FBF1F1E26989B242F40F
:104990008042E26149B109E006EB4601B5FBF1F165
:1049A000E26989B222F48042F3E70121E26961F30E
:1049B0000B02E261E16941F40041E1614FF496715B
:1049C00048434FF47A71B0FBF1F0216A401C60F368
:1049D00005012162CEE7000000540040005800406D
:1049E000005C014040420F00A0860100002A42689E
:1049F00001D00A4302E0C94389B20A4042607047CD
:104A00007CB5044600681C49884233D101211B480B
:104A1000FFF73EFC01211A48FFF73AFC04208DF80D
:104A200004008DF8050008208DF8060002208DF89E
:104A300007004020134D009069462846FFF75AFEB4
:104A40008020009069462846FFF754FE0022114658
:104A50001F2000F09DFC00221146202000F098FC51
:104A6000094A00212068FFF74BFFA022002120689F
:104A700000F024FA7CBD00000054004015001C002A
:104A800003001800000C0140A08601002DE9F0474A
:104A90000D460446914600680121FFF78AFE206812
:104AA00000F092FA4B4600220121204600F0A4FAC1
:104AB0000D27A8BB206881684FF00F08090404D4B3
:104AC000E9B20122FFF76DFE32E0062101EAD516B8
:104AD00046F0F001FFF783FE4B46012208212046F5
:104AE00000F08AFA18B10E202076BDE8F087E9B20E
:104AF0002068FFF774FE4B4601220221204600F099
:104B00007BFAE8B902212068FFF7D9FE206800F09F
:104B10005BFA4B4600220121204600F06DFA10B1ED
:104B200027760D20E1E746F0F1012068FFF757FEF8
:104B30004B4601220221204600F05EFA0028D4D024
:104B400084F818800F20D0E7026861F3CB2202605E
:104B5000704770B5044600680421FFF7C1FE0125C7
:104B60004FF4E06630B32089032803D0208902285F
:104B700005D013E000212068FFF71BFE0EE020683F
:104B800000F027FA2068FFF727FE01466068421C04
:104B9000626001702089401E20811AE02068FFF7C2
:104BA0001BFE01466068421C626001702089401E45
:104BB000208170BD40212068FFF792FE0028F8D0C8
:104BC00020890328EAD82089032815D020890228C3
:104BD00012D02068FFF700FE01466068421C626048
:104BE00001702089401E20816561206800223146C5
:104BF000BDE87040FFF7FABE00224FF480612068E4
:104C0000F6E710B5044600688021FFF769FE00282A
:104C10000BD0208950B16068411C61600178206828
:104C2000FFF7DDFD2089401E208110BD012060615D
:104C300000224FF4E0612068FFF7D8FE2068BDE84D
:104C4000104000F0C6B970B5044616460D4600681F
:104C500000F0BAF9334600220121204600F0CCF9D9
:104C600010B10D20207670BD20688168090404D43D
:104C7000E9B20022FFF795FD14E0062101EAD51103
:104C800041F0F001FFF7ABFD334601220821204639
:104C900000F0B2F910B10E20207670BDE9B22068A4
:104CA000FFF79DFD334601220221204600F0A4F9C2
:104CB0000028F2D00F20207670BD70B50546006840
:104CC0001E46144601290FD0210AFFF788FD3346FE
:104CD00001228021284600F08FF9060006D02868BE
:104CE00000F077F9304670BDD1B201E0E1B228683A
:104CF000FFF775FD002070BD2DE9F041174688468D
:104D0000DDE9062104460120089D1E46E0600020E2
:104D10006061626021812561207602462B463A4916
:104D2000204600F069F910B10120BDE8F0810021B2
:104D30002068FFF709FF2A4639462046FFF783FF20
:104D40000028206803D000F044F90220EDE702219A
:104D5000FFF7B5FD2B4601228021204600F04CF9DB
:104D600020B1206800F035F90320DEE72B463246FB
:104D700041462046FFF7A1FF08B10420D5E72B46A6
:104D800001228021204600F037F920B1206800F090
:104D900020F90520C9E72A4639462046FFF776FE66
:104DA00020B1206800F015F90620BEE7208901280F
:104DB00013D020894FF001010228206819D0FFF795
:104DC000F8FC02212068FFF77AFD01224FF4E06130
:104DD0002068FFF70BFE0020A7E700212068FFF7FF
:104DE000E8FC02212068FFF76AFD206800F0F1F876
:104DF000EBE7FFF7A9FE02212068FFF760FD002125
:104E00002068FFF7D6FCE0E7000002102DE9F04132
:104E100017468846DDE9062104460020089D1E4607
:104E2000E0606061626021812561207602462B4648
:104E30002149204600F0E0F810B10120BDE8F081E2
:104E400000212068FFF780FE2A4639462046FFF7FA
:104E5000FAFE0028206803D000F0BBF80220EDE73E
:104E60000221FFF72CFD2B4601228021204600F075
:104E7000C3F820B1206800F0ACF80320DEE72B4631
:104E8000324641462046FFF718FF08B10420D5E717
:104E90002B4601228021204600F0AEF80028206831
:104EA00003D000F096F80520C8E701224FF4E06136
:104EB000FFF79CFD0020C1E700000210836861F34A
:104EC000CF338360816862F309018160704700001D
:104ED0000D4910B5884202D1012184120AE00B4924
:104EE000884202D10121841204E0094988420AD192
:104EF000084C01212046FFF7DDF92046BDE81040AF
:104F00000021FFF7D7B910BD005400400058004001
:104F1000005C014017000C0010B5044600684021F9
:104F2000FFF7DEFC70B1208900280AD02068FFF767
:104F300053FC01466068421C626001702089401E7B
:104F4000208110BD10212068FFF7CAFC0028F8D08E
:104F500010212068FFF7B3FC012060612068BDE8E4
:104F6000104000224FF4E061FFF740BD70B50446E9
:104F700000688021FFF7B4FC002824D02089002895
:104F800021D06068411C616001782068FFF727FC30
:104F90002089401E20812089002814D100224FF44E
:104FA000E0612068FFF722FD23694FF4806500224D
:104FB0002946204600F020F8606129462068FFF766
:104FC0007EFC0120606170BD016841F48071016068
:104FD0007047016841F400710160704703E0491EA9
:104FE00001D2122070474269012AF8D1017E09B12D
:104FF000007E7047002070472DE9F0478846204921
:1050000012271D4616460446884502D02DE06D1E27
:1050100028D341462068FFF763FC0028F7D12CE035
:10502000F0070FD049462068FFF75AFC50B12068BE
:10503000FFF7CFFF49462068FFF741FC112020769B
:10504000BDE8F087B0070BD510212068FFF748FCBA
:1050500030B110212068FFF732FC10202076EFE7F6
:105060006D1E04D227761220EAE74FF4806941468C
:105070002068FFF735FC0028D2D00020E0E70000D0
:10508000000002102DED048B84B0032000F0BEF967
:1050900000F01EFAFDF7B6FD0A20FFF7A5F9002083
:1050A00000F048FB01218C48FFF7F2F8002211467E
:1050B000142000F06DF90024884B894A89498A48F8
:1050C000009400F0B7FE4FF4E13000F09DFA87A0A5
:1050D000FBF7FEF80220CDE90004012302941A46F2
:1050E0007821A0200394FCF749FD4FF47A528049BF
:1050F0008048FCF767FD804800F0ACF90020FCF721
:105100007BFB7E48FCF706FF0020FCF775FB7CA0CC
:10511000FBF7DEF804213320FDF724FE08B17BA065
:1051200000E07EA0FBF7D4F83320FDF707FE08B1BE
:105130007EA000E081A0FBF7CBF884493320FDF787
:10514000C7FB401C7DD082A0FBF7C2F883497F4893
:10515000FDF7C5FB644800F017FEDFF804B2804B92
:1051600001221B1DD1033320FDF75CFD9BF80400D9
:105170005C4600077B484FF001017CD5FFF7AAFA97
:1051800072493320FDF7E8FB207074496F48FDF742
:105190003DFCF2EE000A84ED030A70EE600A724AEA
:1051A00094ED020A6D496948FDF700F80026DFF822
:1051B000B8916E496E4835469FED6E8B90ED000AB2
:1051C000D1ED009AA9F5407830EE699A002408EBF9
:1051D000451700BF09EB860090ED000A70EE690AE2
:1051E00080EE890A10EE100A02F068F9B0EE481A53
:1051F000F0EE681A53EC112B01F06AFE01F0D4FDB9
:105200003855761C641C4146B6B2202CE2DB6D1C7E
:10521000182DDBDB524B0022DFF8DCA09F244FF07F
:105220007709103302EB8206C2EBC20500200AEBBD
:10523000861605EB021500BF95FBF9FC01EB4C1C33
:1052400000E03BE0C0EB401898FBF4F895FBF9F761
:105250001CF808C001EB4718471CC7EB471797FB22
:10526000F4F70CEB4C0C9C4418F80770BCF800C029
:1052700026F810C000E02BE007EB470713F807C043
:105280001F44BF784CEA072706EB400C801CACF8A3
:105290000270A028D0DB521C782AC3DB304C641C7F
:1052A000207868B1607800287FF459AF3348FCF764
:1052B00031FEFCF7D5F90120607050E730A043E7DC
:1052C0003248FCF727FEFCF7CBF90120207046E7B7
:1052D000FFF702FA43E7000017001C0098030020C4
:1052E00070030020005C0040EC4601204F4B200082
:1052F0006C4A00207B050008EC880020EC0B0020A5
:105300004A5047456E4F4B200000000052656672C0
:105310006573685261746545525220005265667229
:10532000657368526174654F4B2000004368657374
:10533000734D6F64654552522000000043686573E9
:10534000734D6F64654F4B2000000000EC2D012071
:1053500044756D7045454F4B2000000070340120AE
:105360000400002000080140EC210120E40B002093
:10537000E00B00200000000000E06F40DB4C00204C
:1053800044756D7045452D45525220005B0E00203E
:1053900070B51D4B1B68C3F30224C4F10706042E2D
:1053A00000D90426231D072B01D2002400E0E41EAF
:1053B000012303FA06F56D1E0D40A54003FA04F122
:1053C000491E11400D43002807DB00BF00F1E0211A
:1053D0004FEA051281F8002407E000F00F0202F105
:1053E000E0224FEA051182F8141D0BDB00F01F01CB
:1053F0004FEA50104FEA800000F1E02003FA01F379
:10540000C0F8003170BD00000CED00E0064900F06E
:10541000070208684FF6FF03184040EA0220034ADB
:1054200010430860704700000CED00E00000FA0532
:10543000BFF34F8F05480168054A01F4E06111434D
:105440000160BFF34F8F00BFFDE700000CED00E0EF
:105450000400FA050149C968C861704700050020C9
:1054600000B52DED048B83B041EC190B01F070FEFB
:1054700041EC180B18EE100A18EE901A8DED008B07
:10548000002818BF0120084320F00040C0F17F60D1
:1054900000F1E040C00F14D019EE101A19EE900A76
:1054A0008DED009B002918BF0121084320F000402A
:1054B000C0F17F6000F1E040C00F04BF0120FAF7A7
:1054C000AAFF51EC180B03B0BDEC048B00BD00002B
:1054D00010B5FEF725FF01210846FEF70DFE00BFBF
:1054E000FEF7ACFE0028FBD001210020FEF704FEF1
:1054F0000120FEF793FE0128FAD101221321104664
:10550000FEF7EAFE01210220FEF7F6FD1920FEF764
:1055100085FE0128FAD10020FEF7C8FD0420FEF721
:10552000D5FD0420FEF7CAFD0120FEF7D7FD0220BD
:10553000FEF716FFFEF71CFF0228FBD10020FEF746
:10554000CDFDBDE8104000F001B8000070B5FEF7D9
:105550000FFF204B204A214928B1214C01280CD0B3
:10556000022808D10BE0506D800504D5106B800136
:1055700001D51C4824E00B6023E00C6021E050685A
:10558000C0F3004550685368C0F38340C3F34173D0
:1055900073B90F280CD0801C75B153689B030DD5CF
:1055A000536DC3F301339B1CB4FBF3F34343E2E7B6
:1055B00000EB0310401CEFE70B4B00E0084B584397
:1055C00008605068094AC0F30310105C0A68C240C2
:1055D0000A6070BD00127A00001002404C030020E7
:1055E000001BB700006CDC0200093D00CA76000811
:1055F0004FF0E0210428086903D020F0040008617E
:10560000704740F00400FAE71CB504460121164833
:10561000FEF73EFE144801210C38FEF739FE6846BD
:10562000FFF75CF801208DF8070000208DF80400DA
:1056300008208DF806008001009004208DF80500F8
:1056400069460A48FFF756F82146094C00231A46D6
:10565000204600F01DF80121204600F057F80121F6
:10566000204600F00BF81CBD0E0018000008014099
:1056700000380140C1F3080141607047C26861F31E
:105680004D32C26070470068084000D0012070476A
:10569000F0B585B004461D4616460F466846FEF72F
:1056A0004DFD1648844208D01548844205D015485F
:1056B000844202D01448844201D1029800E0039849
:1056C0000A2100EB80004000B0FBF7F0B0FBF1F2E4
:1056D00001FB1202B0FBF1F0052A00D3401CA168C7
:1056E00060F30F01A160E06866F30C30E0602069B0
:1056F00065F30D30206105B0F0BD000000380140B9
:10570000006001400064014000680140C26861F32C
:10571000C302C26070470000014940200880704702
:105720004403002002490246088802440A80704768
:105730004403002010B580B11F48204B0268204868
:10574000D11A9A4231D021DC1E49511829D00918AA
:1057500029D0C1422FD103201FE00120FEF71EFEF9
:1057600001211948FEF794FD41F62C70FEF70CFB61
:105770004FF4FA50FEF70EFB41F65470FEF710FBA3
:105780000121BDE810400220FEF7ECBA09180ED046
:1057900009180ED0C1420ED10620BDE81040FEF718
:1057A000EFBD0120F9E70020F7E70220F5E705202B
:1057B000F3E70420F1E710BD4C030020000E27079B
:1057C00000CA91FE009423FD16001800016C21F020
:1057D00002010164016E21F0020101667047016C53
:1057E00021F0010101640021416401658021C1644F
:1057F00001224FF41E4100F045BA016C41F008014E
:105800000164016C41F0040101647047F0B591F846
:105810000AE03E480A7848F6BF754BF68F7648F2A4
:10582000800348F2C00748F68F744CF2800C00EBFE
:105830008202BEF1000F34D0D2F800EC5FEA4E6E67
:1058400007D5D2F800EC0EEA040E4EEA070EC2F8B5
:1058500000EC0A7800EB8202D2F800EC5FEA4E4ED0
:1058600007D5D2F800EC0EEA040E4EEA0C0EC2F890
:1058700000EC8A78012A0A784FEA82023CD0171895
:10588000D7F8002C224042EA0C02C7F8002C0A7814
:1058900000EB8204D4F8002C2A401A43C4F8002CF0
:1058A0000FE091F802E0BEF1010F14D0D2F8005CD5
:1058B0006D0406D5D2F8005C254045EA0C05C2F817
:1058C000005C097800EB8101D1F8000C30401843EE
:1058D000C1F8000CF0BDD2F8006C760605D5D2F800
:1058E000006C26403E43C2F8006C097800EB810151
:1058F000D1F8000C2840EAE702EB000CDCF8002CA1
:1059000022403A43CCF8002CC1E700000050004090
:105910002DE9F04F087800228300D1480344D3F8E2
:10592000004C48F680752C404D782C43C3F8004C51
:10593000CB7833B1012B0ED0022B05D0032B06D030
:1059400009E04FF4007206E04FF4C06203E0012367
:105950004FF480628B720B7800EB8304D4F8003C28
:1059600048F68F152B401343C4F8003CBE4B8F788C
:10597000BC4E5B6848F6BF7E48F280184FF0040BBF
:1059800048F280044CF2800948F2C00548F68F7254
:10599000012F37D091F80AC04FF6FF77BCF1000F06
:1059A00070D091F800C0AE4800EB8C00D0F800CC6D
:1059B0000CEA020C4CEA080CC0F800CCB1F804C0A8
:1059C0003068B2460E7800EBC60043F810C0CE88AF
:1059D000DAF800C091F800800BEBC800604443F88F
:1059E0001060DAF800000E784FF0020C0CEBC606DF
:1059F000304403EB400608893E287DD94309C006A0
:105A00007BD0C5E08F7AE7B30F7800EB8707D7F834
:105A100000CC0CEA020C4CEA080CC7F800CC8F88CA
:105A2000D6F800C091F800800CEBC80C43F81C704D
:105A3000CF88D6F800C091F800800BEBC80666440A
:105A400043F816700B7800EB8303D3F8006C7606EE
:105A500005D5D3F8006C16402E43C3F8006C0B78C4
:105A600000EB8303D3F8005C6D0406D5D3F8005C2B
:105A7000154045EA0905C3F8005C0B7800EB830389
:105A800001E01CE041E0D3F8005C154045EA09055F
:105A9000C3F8005C0A7800EB8203D3F8002C4BF6C5
:105AA0008F752A402243C3F8002C097800EB81014E
:105AB000D1F8000C00EA0E0080F02000CCE08F88C6
:105AC000366891F800C006EBCC0643F816700B78E8
:105AD00000EB8303D3F8006C760605D5D3F8006C91
